:200000000C9434000C943E000C943E000C943E000C943E000C943E000C943E000C943E00FA
:200020000C943E000C943E000C943E000C943E000C943E000C943E000C943E000C943E00D0
:200040000C943E000C943E000C943E000C943E000C943E000C943E000C943E000C943E00B0
:200060000C943E000C943E0011241FBECFEFD8E0DEBFCDBF0E9440000C9456000C9400009B
:20008000259A2D9A2FEF87EA91E6215080409040E1F700C000002D982FEF87EA91E62150FF
:2000A00080409040E1F700C00000EBCFF894FFCF102001020408102011241FBECFEFD8E00D
:2000C000DEBFCDBF21E0A0E0B1E001C01D92AA30B207E1F70E9422010C94A6010C9400005E
:2000E0001F920F920FB60F9211242F933F938F939F93AF93BF938091060190910701A09125
:200100000801B09109013091050123E0230F2D3758F50196A11DB11D2093050180930601E8
:2001200090930701A0930801B09309018091010190910201A0910301B09104010196A11D04
:20014000B11D8093010190930201A0930301B0930401BF91AF919F918F913F912F910F9008
:200160000FBE0F901F90189526E8230F0296A11DB11DD2CF1F920F920FB60F9211242F9303
:200180008F939F93AF93BF93EF93FF939091000181E0911180E08093000120910001E5E74C
:2001A000F0E09491E1EBF0E08491EDE9F0E0E491EE23C9F0992339F0933059F100F591300C
:2001C00071F1923081F1F0E0EE0FFF1FE458FF4FA591B4919FB7F894EC91211131C0809502
:2001E0008E238C939FBFFF91EF91BF91AF919F918F912F910F900FBE0F901F9018959730F3
:20020000A9F09830C9F09430F1F6909180009F7D03C0909180009F7790938000D4CF94B553
:200220009F7794BDD0CF94B59F7DFBCF9091B0009F779093B000C7CF9091B0009F7DF9CF84
:200240008E2BCFCF789484B5826084BD84B5816084BD85B5826085BD85B5816085BD8091B8
:200260006E00816080936E001092810080918100826080938100809181008160809381007C
:20028000809180008160809380008091B10084608093B1008091B00081608093B000809179
:2002A0007A00846080937A0080917A00826080937A0080917A00816080937A0080917A00D5
:2002C000806880937A001092C100E1EBF0E02491EDE9F0E08491882399F090E0880F991F47
:2002E000FC01EA57FF4FA591B491FC01E458FF4F859194918FB7F894EC91E22BEC938FBF0C
:20030000F8941092800010928100109285001092840088E09DE3909389008093880080917F
:2003200081008860809381008091810084608093810080916F00826080936F007894C0E026
:20034000D0E02097F1F30E940000FBCFF894FFCFFC01A48DA80FB92FB11DA35ABF4F2C9129
:20036000848D90E001968F739927848FA689B7892C93A089B1898C91837080648C93938DCC
:20038000848D981306C00288F389E02D80818F7D80830895EF92FF920F931F93CF93DF93E1
:2003A000EC0181E0888F9B8D8C8D98131AC0E889F989808185FF15C09FB7F894EE89FF89E4
:2003C0006083E889F98980818370806480839FBF81E090E0DF91CF911F910F91FF90EF900F
:2003E0000895F62E0B8D10E00F5F1F4F0F731127E02E8C8D8E110CC00FB607FCFACFE8898A
:20040000F989808185FFF5CFCE010E94A801F1CFEB8DEC0FFD2FF11DE35AFF4FF0829FB737
:20042000F8940B8FEA89FB8980818062CFCFCF93DF93EC01888D8823B9F0AA89BB89E8890C
:20044000F9898C9185FD03C0808186FD0DC00FB607FCF7CF8C9185FFF2CF808185FFEDCF36
:20046000CE010E94A801E9CFDF91CF91089542E050E062E171E087E391E00C942A011F9200
:200480000F920FB60F9211242F933F938F939F93AF93BF9380912F0190913001A0913101AE
:2004A000B091320130912E0123E0230F2D3758F50196A11DB11D20932E0180932F01909387
:2004C0003001A0933101B09332018091330190913401A0913501B09136010196A11DB11D73
:2004E0008093330190933401A0933501B0933601BF91AF919F918F913F912F910F900FBE9E
:200500000F901F90189526E8230F0296A11DB11DD2CF1F920F920FB60F9211242F933F935A
:200520004F935F936F937F938F939F93AF93BF93EF93FF9387E391E00E94A801FF91EF91A1
:20054000BF91AF919F918F917F916F915F914F913F912F910F900FBE0F901F9018951F9233
:200560000F920FB60F9211242F938F939F93EF93FF93E0914701F09148018081E0914D01D2
:20058000F0914E0182FD1BC09081809150018F5F8F7320915101821741F0E0915001F0E06F
:2005A000E95CFE4F958F80935001FF91EF919F918F912F910F900FBE0F901F901895808199
:2005C000F4CF789484B5826084BD84B5816084BD85B5826085BD85B5816085BD80916E005B
:2005E000816080936E00109281008091810082608093810080918100816080938100809156
:2006000080008160809380008091B10084608093B1008091B00081608093B00080917A008C
:20062000846080937A0080917A00826080937A0080917A00816080937A0080917A008068E3
:2006400080937A001092C100EDE9F0E02491E9E8F0E08491882399F090E0880F991FFC01A9
:20066000E859FF4FA591B491FC01EE58FF4F859194918FB7F894EC91E22BEC938FBFE0910A
:200680004701F091480182E08083E0914301F09144011082E0914501F091460180E18083F3
:2006A00010924F01E0914B01F0914C0186E08083E0914901F0914A01808180618083E09177
:2006C0004901F0914A01808188608083E0914901F0914A01808180688083E0914901F09169
:2006E0004A0180818F7D8083C0E0D0E081E00E9487000E94F4004CE050E065E171E087E3D2
:2007000091E00E942A010E94370280E00E9487000E94F4004BE050E062E271E087E391E0D6
:200720000E942A010E943702209701F30E9494018823E1F20E940000D9CFE7E3F1E0138237
:20074000128288EE93E0A0E0B0E084839583A683B78384E091E09183808385EC90E09587A1
:20076000848784EC90E09787868780EC90E0918B808B81EC90E0938B828B82EC90E0958B5A
:20078000848B86EC90E0978B868B118E128E138E148E0895EE0FFF1F0590F491E02D099437
:2007A000F894FFCF00000000CA012A0157011702880166017A010D0A004C45442069732005
:2007C0006869676821004C4544206973206C6F7721002B0180932A0180EC90E090932D015D
:2007E00080932C0181EC90E090932F0180932E0182EC90E0909331018093300186EC90E0EE
:200800009093330180933201109235011092360110923701109238018091DD018C3098F49E
:2008200091E0980F9093DD018093DE0190E0FC01EE0FFF1FE80FF91FE754FE4F88EB9BE0A0
:200840009283818308958FEF8093DE010895789484B5826084BD84B5816084BD85B58260F6
:2008600085BD85B5816085BD80916E00816080936E001092810080918100826080938100CD
:2008800080918100816080938100809180008160809380008091B10084608093B1008091D1
:2008A000B00081608093B00080917A00846080937A0080917A00826080937A0080917A0063
:2008C000816080937A0080917A00806880937A001092C10061E089E00E94090160E08EE043
:2008E0000E940901E0912C01F0912D0182E08083E0912801F09129011082E0912A01F091A6
:200900002B0180E1808310923401E0913001F091310186E08083E0912E01F0912F01808160
:2009200080618083E0912E01F0912F01808188608083E0912E01F0912F0180818068808359
:20094000E0912E01F0912F0180818F7D80838091DE018C3008F051C061E089E00E9409012B
:200960008091DE01282F30E0F901EE0FFF1FE20FF31FE754FE4F9081907C996090831092B5
:20098000DF011092E0012CE0622F0E94B305829FB001112430E020E0AB01420F531FFA017C
:2009A000EE0FFF1FE40FF51FE754FE4F908196FD16C02F5F3F4F2C30310571F781110FC09C
:2009C0001092800082E0809381001092850010928400B19A80916F00826080936F00E09112
:2009E000DE018E2F90E0FC01EE0FFF1FE80FF91FE754FE4F80818064808388EE93E00E94C9
:200A0000870010E49CEFC92E93E0D92EE12CF12CC0E0D0E010937C0080917A008064809344
:200A20007A0080917A0086FDFCCFA0917800B091790028EE33E00E94BF05A70196010E9490
:200A4000630528513C4F4F4F5F4F283E83E0380714F428EE33E0C901813D27E0920714F079
:200A600080ED97E00E9487000E943A012B013C018CE3882E912CA12CB12C0E943A0164193D
:200A8000750986099709683E734081059105A8F381E0881A9108A108B10828EE420E23E032
:200AA000521E611C711C81149104A104B10429F7209709F4AFCF0E94C901882309F4AACF59
:200AC0000E940000A7CF052E97FB1EF400940E947A0557FD07D00E94820507FC03D04EF406
:200AE0000C947A0550954095309521953F4F4F4F5F4F089590958095709561957F4F8F4F4A
:200B00009F4F0895A1E21A2EAA1BBB1BFD010DC0AA1FBB1FEE1FFF1FA217B307E407F507F1
:200B200020F0A21BB30BE40BF50B661F771F881F991F1A9469F760957095809590959B01E3
:200B4000AC01BD01CF010895A29FB001B39FC001A39F700D811D1124911DB29F700D811D0C
:200B60001124911D0895991B79E004C0991F961708F0961B881F7A95C9F7809508950E944C
:200B8000A405B7FF0895821B930B0895EE0FFF1F0590F491E02D0994F894FFCF0000000048
:200BA000FF015F018C014C02BD019B01AF0169F760957095809590959B01AC01BD01CF0185
:200BC0000895A29FB001B39FC001A39F700D811D1124911DB29F700D811D1124911D089547
:200BE000991B79E004C0991F961708F0961B881F7A95C9F7809508950E94E105B7FF089513
:200C0000821B930B0895EE0FFF1F0590F491E02D0994F894FFCF00000000FF015F018C01D6
:200C20004C02BD019B01AF010D0A0000809508950E94FD05B7FF0895821B930B0895EE0FC7
:200C4000FF1F0590F491E02D0994F894FFCF00000000FF015F018C014C02BD019B01AF0113
:200C60000D0A00007095809590959B01AC01BD01CF010895A29FB001B39FC001A39F700DE6
:200C8000811D1124911DB29F700D811D1124911D0895991B79E004C0991F961708F0961B08
:200CA000881F7A95C9F7809508950E943A06B7FF0895821B930B0895EE0FFF1F0590F491CA
:200CC000E02D0994F894FFCF00000000C9012901560116028701650179010D0A0000700DB1
:200CE000811D1124911DB29F700D811D1124911D0895991B79E004C0991F961708F0961BA8
:200D0000881F7A95C9F780950895EE0FFF1F0590F491E02D0994F894FFCF000000004E0222
:200D20006E019B019B020C02AA01BE010D0A00002F933F938F939F93AF93BF938091EF01FF
:200D40009091F001A091F101B091F2013091EE0123E0230F2D3758F50196A11DB11D2093BE
:200D6000EE018093EF019093F001A093F101B093F2018091F3019091F401A091F501B0918F
:200D8000F6010196A11DB11D8093F3019093F401A093F501B093F601BF91AF919F918F91D7
:200DA0003F912F910F900FBE0F901F90189526E8230F0296A11DB11DD2CF1F920F920FB620
:200DC0000F9211242F933F934F935F936F937F938F939F93AF93BF93EF93FF9383E992E0E7
:200DE0000E94C301FF91EF91BF91AF919F918F917F916F915F914F913F912F910F900FBEC1
:200E00000F901F9018951F920F920FB60F9211242F938F939F93EF93FF93E091A302F09129
:200E2000A4028081E091A902F091AA0282FD1BC090818091AC028F5F8F732091AD028217AF
:200E400041F0E091AC02F0E0ED56FD4F958F8093AC02FF91EF919F918F912F910F900FBE72
:200E60000F901F9018958081F4CF1F920F920FB60F9211242F933F934F935F936F937F934A
:200E80008F939F93AF93BF93EF93FF938091B900887F803609F44AC0F0F5883209F4A7C0C5
:200EA00018F5803109F49BC0B8F4882309F4F9C0883009F494C0FF91EF91BF91AF919F9136
:200EC0008F917F916F915F914F913F912F910F900FBE0F901F901895883109F488C080326B
:200EE00051F78093670214C0803409F49DC040F48033B9F38833F9F68093670285ECB0C0B2
:200F0000803509F485C0883509F496C0883499F60E945B06D0CF883909F48CC038F58837E7
:200F200029F050F4883611F0803729F683E0809369021092E70157C0883809F47BC080398C
:200F400019F0803809F0B7CF8091E701803208F071C0E091E70181E08E0F8093E70180911A
:200F6000BB00F0E0E953FE4F80833DC0803B39F0E0F4803A09F479C0883A09F09CCF84E02B
:200F8000809369021092C6011092C501E091EA01F091EB0109958091C50181110FC081E002
:200FA0008093C5011092A50109C0803C09F4A6CF883C09F4A3CF883B09F07DCFE091C601A6
:200FC00081E08E0F8093C601F0E0EB55FE4F80818093BB009091C6018091C50129C0809154
:200FE00044028093BB0085EC8093BC0064CF9091660280916502981758F5E091660281E033
:201000008E0F80936602F0E0EB5BFD4F8081E9CFE091660281E08E0F809366028091BB007F
:20102000F0E0EB5BFD4F808390916602809165029817C8F285E8D8CFE091660281E08E0FF6
:20104000809366028091BB00F0E0EB5BFD4F80838091680281115CCF81E08093430284EA85
:201060008093BC001092690226CF85EC8093BC00109269028091E701803230F4E091E7012A
:20108000F0E0E953FE4F10826091E70170E0E091E801F091E90187EC91E009951092E7016B
:2010A0000ACF1092670234CFE3E9F2E01382128288EE93E0A0E0B0E084839583A683B78307
:2010C00024E031E03183208325EC30E03587248724EC30E03787268720EC30E0318B208B0E
:2010E00021EC30E0338B228B22EC30E0358B248B26EC30E0378B268B118E128E138E148EC4
:20110000E0E3F3E01382128284839583A683B78386E191E0918380830895789484B58260DB
:2011200084BD84B5816084BD85B5826085BD85B5816085BD80916E00816080936E001092D5
:201140008100809181008260809381008091810081608093810080918000816080938000FA
:201160008091B10084608093B1008091B00081608093B00080917A00846080937A00809193
:201180007A00826080937A0080917A00816080937A0080917A00806880937A001092C1000A
:2011A0001092F8011092F70110927002109292020E94790283E491E09093EB018093EA01AE
:2011C00084E491E09093E9018093E801E091A302F091A40282E08083E0919F02F091A00256
:2011E0001082E091A102F091A2028FEC80831092AB02E091A702F091A80286E08083E09138
:20120000A502F091A602808180618083E091A502F091A602808188608083E091A502F09153
:20122000A602808180688083E091A502F091A60280818F7D80838BE690E00E9427048CE1AE
:2012400090E00E9427048BE190E00E94270458ECE52EF12C67E3A62E62E0B62E66E070E05A
:2012600083E490E00E946E0580E00E9482000BE212E04FE1C42E42E0D42EE80169917991EC
:2012800089919991F60121913191419151916F014E01F4E08F1A91080E94520AF401608340
:2012A000718382839383AC16BD0641F7F1E0EF1AF108A1F680E391E00E9441043FE1A32E4C
:2012C00032E0B32EF801C190D190E190F1908F0120E030E048E453E4C701B6010E94C30A8D
:2012E000F50161937193819391935F0142E0C701B6010E94920484E491E00E9441040C17AC
:201300001D0701F787E491E00E944104CBE2D2E000E010E066E070E08BE390E00E946E0536
:2013200081E00E94820066E070E083E490E00E946E0580E00E94820062E070E080E490E0BC
:201340000E946E056091190270911A02762767277627072E000C880B990B0E946D0B20E0F5
:2013600030E04AEA53E40E94C30A28EB3EE142E152E40E94520A0E94350B7093ED01609334
:20138000EC018AE491E00E94410427E3E22E22E0F22EF70161917191819191917F0142E09C
:2013A0000E94920484E491E00E944104F3E4EF16F2E0FF0671F787E491E00E9441048AE5E8
:2013C00091E00E9441046091EC017091ED01072E000C880B990B0E946D0B20E030E04AEA12
:2013E00053E40E94C30A28EB3EE142E152E40E94520A42E00E94920487E491E00E944104A1
:2014000088E691E00E9441049FE1E92E92E0F92EF70161917191819191917F0142E00E9472
:20142000920484E491E00E944104CE15DF0581F784E791E00E94410487E491E00E94410491
:201440000E941E014B015C0188EEC82E83E0D82EE12CF12C0E941E01681979098A099B0928
:20146000683E734081059105A8F3F1E0CF1AD108E108F10828EE820E23E0921EA11CB11C04
:20148000C114D104E104F10429F70115110509F441CF0E94AF01882309F43CCF0E940000C8
:2014A00039CF5058BB27AA270E94690A0C94E30B0E94D50B38F00E94DC0B20F039F49F3FD8
:2014C00019F426F40C94D20B0EF4E095E7FB0C94CC0BE92F0E94F40B58F3BA1762077307E0
:2014E0008407950720F079F4A6F50C94160C0EF4E0950B2EBA2FA02D0B01B90190010C0121
:20150000CA01A0011124FF27591B99F0593F50F4503E68F11A16F040A22F232F342F4427F3
:20152000585FF3CF469537952795A795F0405395C9F77EF41F16BA0B620B730B840BBAF02B
:201540009150A1F0FF0FBB1F661F771F881FC2F70EC0BA0F621F731F841F48F48795779505
:201560006795B795F7959E3F08F0B0CF9395880F08F09927EE0F9795879508950E94A80B95
:2015800008F481E008950E94D70A0C94E30B0E94DC0B58F00E94D50B40F029F45F3F29F0E9
:2015A0000C94CC0B51110C94170C0C94D20B0E94F40B68F39923B1F3552391F3951B550BAA
:2015C000BB27AA2762177307840738F09F5F5F4F220F331F441FAA1FA9F335D00E2E3AF050
:2015E000E0E832D091505040E695001CCAF72BD0FE2F29D0660F771F881FBB1F2617370730
:201600004807AB07B0E809F0BB0B802DBF01FF2793585F4F3AF09E3F510578F00C94CC0B0A
:201620000C94170C5F3FE4F3983ED4F3869577956795B795F7959F5FC9F7880F911D9695AC
:20164000879597F90895E1E0660F771F881FBB1F621773078407BA0720F0621B730B840B1B
:20166000BA0BEE1F88F7E09508950E943C0B6894B1110C94170C08950E94FC0B88F09F57E9
:2016800098F0B92F9927B751B0F0E1F0660F771F881F991F1AF0BA95C9F714C0B13091F0E8
:2016A0000E94160CB1E008950C94160C672F782F8827B85F39F0B93FCCF386957795679570
:2016C000B395D9F73EF490958095709561957F4F8F4F9F4F0895E89409C097FB3EF4909526
:2016E0008095709561957F4F8F4F9F4F9923A9F0F92F96E9BB279395F6958795779567958B
:20170000B795F111F8CFFAF4BB0F11F460FF1BC06F5F7F4F8F4F9F4F16C0882311F096E954
:2017200011C0772321F09EE8872F762F05C0662371F096E8862F70E060E02AF09A95660F1C
:20174000771F881FDAF7880F9695879597F90895990F0008550FAA0BE0E8FEEF16161706A9
:20176000E807F907C0F012161306E407F50798F0621B730B840B950B39F40A2661F0232BF4
:20178000242B252B21F408950A2609F4A140A6958FEF811D811D089597F99F6780E870E00A
:2017A00060E008959FEF80EC089500240A941616170618060906089500240A9412161306DD
:2017C000140605060895092E0394000C11F4882352F0BB0F40F4BF2B11F460FF04C06F5F9D
:2017E0007F4F8F4F9F4F089557FD9058440F551F59F05F3F71F04795880F97FB991F61F059
:201800009F3F79F087950895121613061406551FF2CF4695F1DF08C0161617061806991FA6
:20182000F1CF86957105610508940895E894BB2766277727CB0197F908950E94A80B08F4E5
:201840008FEF08950E94350C0C94E30B0E94D50B38F00E94DC0B20F0952311F00C94CC0B89
:201860000C94D20B11240C94170C0E94F40B70F3959FC1F3950F50E0551F629FF001729FBC
:20188000BB27F00DB11D639FAA27F00DB11DAA1F649F6627B00DA11D661F829F2227B00D7D
:2018A000A11D621F739FB00DA11D621F839FA00D611D221F749F3327A00D611D231F849F50
:2018C000600D211D822F762F6A2F11249F5750409AF0F1F088234AF0EE0FFF1FBB1F661FE9
:2018E000771F881F91505040A9F79E3F510580F00C94CC0B0C94170C5F3FE4F3983ED4F3AB
:20190000869577956795B795F795E7959F5FC1F7FE2B880F911D9695879597F908950E9416
:20192000A80B880B990B0895A1E21A2EAA1BBB1BFD010DC0AA1FBB1FEE1FFF1FA217B307AE
:20194000E407F50720F0A21BB30BE40BF50B661F771F881F991F1A9469F76095709580958F
:2019600090959B01AC01BD01CF010895EE0FFF1F0590F491E02D0994F894FFCF0000000095
:20198000E501450172013202A3018101950100000000F803CB033E04A803CB00B803A903D0
:2019A0006E616E00696E66006F766600546F74616C204779726F204F66667365743A2000BC
:2019C0002C20000D0A00416363656C65726F6D657465723A200054656D70657261747572E6
:2019E000653A20004779726F73636F70653A20000A2D2D2D2D2D2D2D2D2D2D2D2D2D2D2D66
:201A00002D2D2D2D2D2D2D2D2D2D2D2D2D2D2D2D2D2D2D2D2D2D2D2D2D2D2D2D2D2D000080
:201A20004E5F5F4F2417350748F04E0F5F1F5093940240939302819391939FCFF0E0E0E0AA
:201A40009CCFCF93DF930097E9F0FC01329713821282A0919502B0919602ED0130E020E049
:201A60001097A1F420813181820F931F20919302309194022817390709F061C0F093940245
:201A8000E0939302DF91CF910895EA01CE17DF07E8F54A815B819E0141155105B1F7E901BA
:201AA000FB83EA8349915991C40FD51FEC17FD0761F4808191810296840F951FE90199835C
:201AC0008883828193819B838A83F0E0E0E012968D919C9113970097B9F52D913C91119714
:201AE000CD010296820F931F20919302309194022817390739F6309751F510929602109209
:201B00009502B0939402A0939302BCCFD383C28340815181840F951FC817D90761F44E5FCC
:201B20005F4F88819981480F591F518340838A819B81938382832115310509F0B0CFF093C5
:201B40009602E09395029ECFFD01DC01C0CF13821282D7CFFC010590615070400110D8F76A
:201B6000809590958E0F9F1F0895DC0101C06D9341505040E0F70895FC0161507040019011
:201B80000110D8F7809590958E0F9F1F08950F931F93CF93DF93182F092FEB018B8181FD16
:201BA00009C01FEF0FEF812F902FDF91CF911F910F91089582FF14C02E813F818C819D8135
:201BC000281739073CF4E881F981CF0101969983888310838E819F8101969F838E83E3CFA7
:201BE000E885F985812F0995892BA1F3DACFFA01AA27283051F1203181F1E8946F936E7F27
:201C00006E5F7F4F8F4F9F4FAF4FB1E03ED0B4E03CD0670F781F891F9A1FA11D680F791FE5
:201C20008A1F911DA11D6A0F711D811D911DA11D20D009F468943F912AE0269F1124301978
:201C4000305D3193DEF6CF010895462F4770405D4193B3E00FD0C9F7F6CF462F4F70405D8D
:201C60004A3318F0495D31FD4052419302D0A9F7EACFB4E0A6959795879577956795BA950C
:201C8000C9F700976105710508959B01AC010A2E06945795479537952795BA95C9F7620F89
:201CA000731F841F951FA01D08952F923F924F925F926F927F928F929F92AF92BF92CF9226
:201CC000DF92EF92FF920F931F93CF93DF93CDB7DEB7CA1BDB0B0FB6F894DEBF0FBECDBF2E
:201CE00009942A88398848885F846E847D848C849B84AA84B984C884DF80EE80FD800C8171
:201D00001B81AA81B981CE0FD11D0FB6F894DEBF0FBECDBFED010895A1E21A2EAA1BBB1BBF
:201D2000FD010DC0AA1FBB1FEE1FFF1FA217B307E407F50720F0A21BB30BE40BF50B661FB1
:201D4000771F881F991F1A9469F760957095809590959B01AC01BD01CF010895EE0FFF1FBD
:201D60000590F491E02D0994F894FFCF00009702800000000000FA025A0287026203B8022C
:201D80009602AA020D0A005374617274696E672043617272696572204F75740053746F70B6
:201DA00070696E672043617272696572204F75740000FFFFFFFFFFFFFFFFFFFFFFFFFFFF43
:201DC000FFFFFFFFFFFFFFFFFFFFFFFFFFFFFFFFFFFFFFFFFFFFFFFFFFFFFFFFFFFFFFFF23
:201DE000FFFFFFFFFFFFFFFFFFFFFFFFFFFFFFFFFFFFFFFFFFFFFFFFFFFFFFFFFFFFFFFF03
:201E00008F929F92AF92BF92CF92DF92EF92FF920F931F93CF93DF935C01EB016A014901D4
:201E200038018701DC01ED91FC916217730719F5641675062CF0962D872D3A01C92ED82E38
:201E40009601261937092F5F3F4F048CF58DE02DA301BE01C5010995DF91CF911F910F914A
:201E6000FF90EF90DF90CF90BF90AF909F908F907F906F9008954615570591F42617370748
:201E800024F0892D4B01C22FD82F9E01281939092F5F3F4F068CF78DE02DA601B401DACFCE
:201EA0000284F385E02D0995D501ED91FC910488F589E02D83019401A601BE01C50109959E
:201EC000D501ED91FC910688F789E02DC501DF91CF911F910F91FF90EF90DF90CF90BF90F5
:201EE000AF909F908F907F906F900994EF92FF920F931F93DC011A960D911C911B9718960C
:201F00002D913C911997ED91FC9100A0F1A1E02D7B0150E040E070E060E009951F910F91F2
:201F2000FF90EF9008954F925F926F927F928F929F92AF92BF92CF92DF92EF92FF920F93A8
:201F40001F93CF93DF936C012B015A0139014801DC01ED91FC910284F385E02D0995E20110
:201F6000640C751CD601ED91FC91C615D7055CF40088F189E02D87019401A501BE01C6011F
:201F800009952196EFCF0688F789E02DC601DF91CF911F910F91FF90EF90DF90CF90BF9001
:201FA000AF909F908F907F906F905F904F9009948F929F92AF92BF92CF92DF92EF92FF9253
:201FC0000F931F93CF93DF93EC015B014A016901E881F9810284F385E02D099595012C0D80
:201FE0003D1D21503109E881F9810488F589E02D78018401A401B501CE010995E881F98139
:202000000688F789E02DCE01DF91CF911F910F91FF90EF90DF90CF90BF90AF909F908F90FE
:2020200009948F929F92AF92BF92CF92DF92EF92FF920F931F93CF93DF93EC015B014A017F
:2020400069017801E881F9810284F385E02D0995C80CD91C860101501109E881F9810488E7
:20206000F589E02D9501A401B501CE010995E881F9810688F789E02DCE01DF91CF911F912A
:202080000F91FF90EF90DF90CF90BF90AF909F908F900994EF92FF920F931F93DC01ED918A
:2020A000FC9100A0F1A1E02D09951F910F91FF90EF9008950F931F93DC01ED91FC91068CED
:2020C000F78DE02D09951F910F9108950F931F93DC01ED91FC91048CF58DE02D09951F913B
:2020E0000F910895DC01ED91FC910084F185E02D09942F923F924F925F926F927F928F9280
:202100009F92AF92BF92CF92DF92EF92FF920F931F93CF93DF9300D000D000D0CDB7DEB767
:202120003C016A013E832D83FC82EB825801A41AB50AB7FE03C0B194A194B1088D809E80EF
:20214000861A970A97FE03C09194819491088A149B045CF0902F812F0D811E819D838E83BD
:202160009C2D8D2D6B01692F782F0C151D055CF09D818E817E836D83692F782F902F812FD6
:202180008601C92ED82E1601201A310A2B012D813E81421A530A57FE03C0519441945108B2
:2021A000710137FE03C03FEFE31AF30AF594E7948D819E81861797075CF5A1E0B0E0BA8382
:2021C000A983C016D1064CF1D301ED91FC910484F585E02D2B813C81A8016D817E818A145E
:2021E0009B041CF04D815E81B801C3010995E418F508F7FE0AC02D813E8189819A81280FEB
:20220000391F3E832D83E20CF31C0F5F1F4FD9CF2FEF3FEF3A832983D4CF26960FB6F8940F
:20222000DEBF0FBECDBFDF91CF911F910F91FF90EF90DF90CF90BF90AF909F908F907F90C1
:202240006F905F904F903F902F900895089590E080E0089561E08DE00C949C030F931F933B
:2022600090E0FC01E255FA4F6491FC01E656FA4FE491F0E0EE0FFF1FE057FA4F85919491DF
:2022800000E412E42FE030E0462F0E94C417611571058105910529F06F5F7F4F8F4F9F4FCA
:2022A0009F701F910F910895CF92DF92EF92FF9290E080E00E940C0360E273E080E090E058
:2022C0000E94AB0461E08CE00E949C0383E290E00197F1F760E08CE00E949C038AE00E9471
:2022E0002E116B017C0190E080E00E940C03C701B6010E948B2126E933E44BE05DE30E9435
:20230000EF2120E030E040E05FE30E94EF210E945321CB01FF90EF90DF90CF900895CF92CD
:20232000DF92EF92FF9284EB90E00E940C0360E971E080E090E00E94AB0461E08CE00E9480
:202340009C0383E290E00197F1F760E08CE00E949C038AE00E942E116B017C0184EB90E089
:202360000E940C03C701B6010E948B2126E933E44BE05DE30E94EF2120E030E040E05FE32A
:202380000E94EF210E945321CB01FF90EF90DF90CF9008950E949D22FB0101900020E9F742
:2023A0003197AF01461B570BDC01ED91FC910280F381E02D09944F925F926F927F928F9255
:2023C0009F92AF92BF92CF92DF92EF92FF920F931F93CF93DF93CDB7DEB7A1970FB6F8948C
:2023E000DEBF0FBECDBF8C016B01770FEE08FF08F7FE49C0DC01ED91FC910190F081E02D76
:202400006DE209955C0122273327A9012C193D094E095F0919A2FE01B1967F019AE0492E69
:20242000512C612C712CCA01B901A30192010E942221605DD7016E937D012115310541058E
:20244000510589F790E080E0109721F0BD01C8010E94CC118A0D9B1DA1960FB6F894DEBFA4
:202460000FBECDBFDF91CF911F910F91FF90EF90DF90CF90BF90AF909F908F907F906F901D
:202480005F904F900895A701960119A2FE01B1967F018AE0882E912CA12CB12CCA01B90105
:2024A000A50194010E942221605DD7016E937D01211531054105510589F790E080E01097E9
:2024C00059F2BD01C8010E94CC11C6CF0C94CC1185ED8093BC008091930690919406A091C2
:2024E0009506B09196060796A11DB11D23E0B695A795979587952A95D1F72091BC0024FD54
:2025000003C010929106089540919306509194066091950670919606452B462B472B69F365
:202520000097A105B10541F02AE22A95F1F700C00197A109B109E1CF809192060C94B00956
:202540008F929F92AF92BF92CF92DF92EF92FF920F931F93CF93DF93E0E0F1E080E094E026
:20256000DF019C011D9221503040E1F781E090E090939F0780939E0790939D0780939C07A7
:2025800082E08093A0078093A10780E590E0909399078093980710929B0710929A07809182
:2025A00061066EE775E0813011F462E875E08CE897E00E94661281E08093A0078093A107DA
:2025C000E0915E06F0915F06EE0FFF1FEC5EFA4F80819181109299071092980790939B0737
:2025E00080939A0765E875E08CE897E00E94661288E090E0909399078093980710929B07EF
:2026000010929A0780910E0590910F058230910509F41BC108F009C1009709F413C16CE87F
:2026200075E0019709F409C1C8E0D0E0D0939907C09398078AE090E090939B0780939A0746
:2026400068EA75E08CE897E00E94661260910A0570910B058CE897E00E94DB11D093990741
:20266000C093980784E190E090939B0780939A076AEA75E08CE897E00E946612609108056E
:20268000709109058CE897E00E94DB11D0939907C09398078EE190E090939B0780939A0765
:2026A00062EB75E08CE897E00E946612A0910C05B0910D0524E630E00E9490222FEF30E042
:2026C00040E050E00E94F020B9018CE897E00E94DB1165E28CE897E00E94CD0DD093990714
:2026E000C093980788E290E090939B0780939A0760EC75E08CE897E00E94661260910605F3
:20270000709107058CE897E00E94DB11D0939907C093980782E390E090939B0780939A07F0
:202720006EEC75E08CE897E00E94661260910405709105058CE897E00E94DB1180E00E9465
:202740003E0B80E10E943E0B80E40E943E0B8091A9078F3F09F482C030EBF32ED0E0C0E03B
:202760008F2D0E943E0B82E00E943E0B80E10E943E0B10E000E0CE0180509F4F6C01E091DE
:20278000B307F091B40780819091B907892B8083E091B507F091B60780819091BA07892BA8
:2027A0008083E091B307F091B40790818091B9078095892380835601A00EB11E20E1E22E24
:2027C000D5018D915D019091AE07992309F443C08EBD00000DB407FEFDCF8EB5EA94E11086
:2027E000EFCFE091B307F091B40780819091B907892B8083005F1F4F0038110509F0BFCF79
:20280000C058DF4FF394C115B4E0DB0709F0A8CFDF91CF911F910F91FF90EF90DF90CF9033
:20282000BF90AF909F908F9008958330910581F063EA75E0049709F0F7CE8CE897E00E94DD
:202840006612F2CE67E875E0F8CF64E975E0F5CF6AE975E0F2CF0E947103C0CF9090B80089
:202860008CE08093B80090EBF92ED0E0C0E0882483948F2D0E943E0B82E00E943E0B80E117
:202880000E943E0B10E000E0FE01E050FF4F5F018091A707809297068093B9061092980620
:2028A0001092BA0660E488E597E00E940F0B6501C00ED11E80E1E82ED6016D916D0188E588
:2028C00097E00E940F0BEA94E110F6CF0E94D109005F1F4F00381105D9F6C058DF4FF3945E
:2028E000C115B4E0DB0729F69092B80091CF90E080E00E94190460E084E00E949C0360E07F
:202900008FE00E949C0360E080E10E949C0360E081E10E949C0310920F0510920E050C9437
:20292000A0120E94190461E08FE00E949C0361E080E10E949C0360E084E00E949C0360E02D
:2029400081E10E949C0384E090E090930F0580930E050C94A0120E94190461E084E00E944B
:202960009C0361E081E10E949C0360E08FE00E949C0360E080E10E949C0382E090E090930D
:202980000F0580930E050C94A0120E94190460E084E00E949C0360E080E10E949C0361E0E4
:2029A0008FE00E949C0361E081E10E949C0383E090E090930F0580930E050C94A0120E945F
:2029C000190461E084E00E949C0361E080E10E949C0360E08FE00E949C0360E08FE00E94D0
:2029E0009C0381E090E090930F0580930E050C94A0121F920F920FB60F9211242F933F9337
:202A00008F939F93AF93BF938091630690916406A0916506B09166063091620623E0230F22
:202A20002D3758F50196A11DB11D209362068093630690936406A0936506B0936606809140
:202A4000670690916806A0916906B0916A060196A11DB11D8093670690936806A093690653
:202A6000B0936A06BF91AF919F918F913F912F910F900FBE0F901F90189526E8230F0296F4
:202A8000A11DB11DD2CF1F920F920FB60F9211242F933F934F935F936F937F938F939F934C
:202AA000AF93BF93EF93FF93E0910205F09103050995FF91EF91BF91AF919F918F917F91CF
:202AC0006F915F914F913F912F910F900FBE0F901F9018951F920F920FB60F9211242F9380
:202AE0003F934F935F936F937F938F939F93AF93BF93EF93FF93E0910005F0910105099585
:202B0000FF91EF91BF91AF919F918F917F916F915F914F913F912F910F900FBE0F901F909B
:202B200018951F920F920FB60F9211242F933F934F935F936F937F938F939F93AF93BF9397
:202B4000EF93FF938BEB96E00E947E05FF91EF91BF91AF919F918F917F916F915F914F9180
:202B60003F912F910F900FBE0F901F9018951F920F920FB60F9211242F938F939F93EF93D9
:202B8000FF93E091CB06F091CC068081E091D106F091D20682FD1BC090818091D4068F5F28
:202BA0008F732091D506821741F0E091D406F0E0E554F94F958F8093D406FF91EF919F91D0
:202BC0008F912F910F900FBE0F901F9018958081F4CF1F920F920FB60F9211242F933F9369
:202BE0004F935F936F937F938F939F93AF93BF93CF93DF93EF93FF9380914E06C0918807D8
:202C0000D0E087FF24C0109285001092840080914E068F5F80934E0680914E06082E000CEC
:202C2000990B8C179D0724F480914E068C30C4F18091840090918500049680349C4908F451
:202C40007AC08091840090918500049676C080914E06082E000C990B8C179D07C4F6E09172
:202C60004E068E2FEE0F990BFC01EE0FFF1FE80FF91FEC59F84F808186FFC9CFE0914E060C
:202C80008E2FEE0F990BFC01EE0FFF1FE80FF91FEC59F84F808160E08F730E949C03B7CF19
:202CA0002091840030918500E0914E068E2FEE0F990BFC01EE0FFF1FE80FF91FEC59F84FC3
:202CC00081819281820F931F9093890080938800E0914E068E2FEE0F990BFC01EE0FFF1F1A
:202CE000E80FF91FEC59F84F808186FF11C0E0914E068E2FEE0F990BFC01EE0FFF1FE80FB0
:202D0000F91FEC59F84F808161E08F730E949C03FF91EF91DF91CF91BF91AF919F918F91CA
:202D20007F916F915F914F913F912F910F900FBE0F901F90189580E49CE990938900809314
:202D400088008FEF80934E06E3CF1F920F920FB60F9211242F933F934F935F936F937F93EB
:202D60008F939F93AF93BF93EF93FF938091B900887F803609F44AC0F0F5883209F4A7C0C6
:202D800018F5803109F49BC0B8F4882309F4F9C0883009F494C0FF91EF91BF91AF919F9137
:202DA0008F917F916F915F914F913F912F910F900FBE0F901F901895883109F488C080326C
:202DC00051F780938F0614C0803409F49DC040F48033B9F38833F9F680938F0685ECB0C05B
:202DE000803509F485C0883509F496C0883499F60E946812D0CF883909F48CC038F58837D0
:202E000029F050F4883611F0803729F683E08093910610924D0657C0883809F47BC08039F6
:202E200019F0803809F0B7CF80914D06803208F071C0E0914D0681E08E0F80934D068091DA
:202E4000BB00F0E0E35DF94F80833DC0803B39F0E0F4803A09F479C0883A09F09CCF84E02D
:202E60008093910610922C0610922B06E0915106F0915206099580912B0681110FC081E0BE
:202E800080932B0610920B0609C0803C09F4A6CF883C09F4A3CF883B09F07DCFE0912C0666
:202EA00081E08E0F80932C06F0E0E55FF94F80818093BB0090912C0680912B0629C0809115
:202EC0006C068093BB0085EC8093BC0064CF90918E0680918D06981758F5E0918E0681E084
:202EE0008E0F80938E06F0E0E359F94F8081E9CFE0918E0681E08E0F80938E068091BB000B
:202F0000F0E0E359F94F808390918E0680918D069817C8F285E8D8CFE0918E0681E08E0F81
:202F200080938E068091BB00F0E0E359F94F80838091900681115CCF81E080936B0684EA10
:202F40008093BC001092910626CF85EC8093BC001092910680914D06803230F4E0914D06FD
:202F6000F0E0E35DF94F108260914D0670E0E0914F06F09150068DE296E0099510924D06BE
:202F80000ACF10928F0634CFCF92DF92EF92FF920F931F93E82FF92F05C00150110921094D
:202FA000310961F1908196239417B9F305C0015011092109310911F1908196239413F7CF97
:202FC000C12CD12CE12CF12C0AC08FEFC81AD80AE80AF80A0C151D052E053F0579F08081B9
:202FE0008623841791F36C2D7D2D8E2D9F2D1F910F91FF90EF90DF90CF90089560E070E0E6
:2030000080E090E01F910F91FF90EF90DF90CF9008951092BE061092BD0688EE93E0A0E0E3
:20302000B0E08093BF069093C006A093C106B093C20622E335E03093BC062093BB0625EC16
:2030400030E03093C8062093C70624EC30E03093CA062093C90620EC30E03093CC062093B6
:20306000CB0621EC30E03093CE062093CD0622EC30E03093D0062093CF0626EC30E0309321
:20308000D2062093D1061092D4061092D5061092D6061092D70610925B0710925A078093BE
:2030A0005C0790935D07A0935E07B0935F0784E495E0909359078093580710928F07109239
:2030C0008E0720E830E0309391072093900780E490E090939307809392073093950720934F
:2030E000940790939707809396071092A207109299071092980710929B0710929A0781E00E
:203100008093A1078093A0072FEF3FEF30939F0720939E0730939D0720939C078093A307B3
:203120001092A4071092A6071092A50786E595E090938D0780938C079FEF9093A9079093E4
:20314000AD079093AB079093AA0784E08093AC07809188078C3098F491E0980F9093880736
:203160008093890790E0FC01EE0FFF1FE80FF91FEC59F84F88EB9BE09283818308959093C2
:2031800089070895789484B5826084BD84B5816084BD85B5826085BD85B5816085BD809173
:2031A0006E00816080936E001092810080918100826080938100809181008160809381000D
:2031C000809180008160809380008091B10084608093B1008091B00081608093B00080910A
:2031E0007A00846080937A0080917A00826080937A0080917A00816080937A0080917A0066
:20320000806880937A001092C10061E084E00E94E80361E08FE00E94E80361E080E10E9423
:20322000E80361E081E10E94E80361E08CE00E94E80360E08AE00E94E80361E087E00E94B8
:20324000E80361E088E00E94E80361E08DE00E94E8030E942A11E091CB06F091CC0682E03E
:203260008083E091C706F091C8061082E091C906F091CA068FEC80831092D306E091CF065C
:20328000F091D00686E08083E091CD06F091CE06808180618083E091CD06F091CE06808156
:2032A00088608083E091CD06F091CE06808180688083E091CD06F091CE0680818F7D8083F5
:2032C000809189078C3008F051C061E085E00E94E80380918907282F30E0F901EE0FFF1F38
:2032E000E20FF31FEC59F84F9081907C9560908310928A0710928B072CE0622F0E948422CE
:20330000829FB001112430E020E0AB01420F531FFA01EE0FFF1FE40FF51FEC59F84F90816D
:2033200096FD16C02F5F3F4F2C30310571F781110FC01092800082E080938100109285006E
:2033400010928400B19A80916F00826080936F00E09189078E2F90E0FC01EE0FFF1FE80FDB
:20336000F91FEC59F84F80818064808382E08093A8078CE38093A7078091A9078F3F09F4E1
:2033800096C261E08091AB070E94E80361E08091AD070E94E8038091AD07082E000C990B06
:2033A000FC01E656FA4FE491F0E0EE0FFF1FEE58FA4F259134913093B4072093B307FC0139
:2033C000E255FA4FE491E093B9078091AB07082E000C990BFC01E656FA4FE491F0E0EE0F58
:2033E000FF1FEE58FA4F259134913093B6072093B507FC01E255FA4FE491E093BA0780917F
:20340000AE0781113EC061E08091A9070E94E80361E08091AA070E94E8038091AA07082E50
:20342000000C990BFC01E656FA4FE491F0E0EE0FFF1FEE58FA4F259134913093B2072093C1
:20344000B107FC01E255FA4FE491E093B8078091A907082E000C990BFC01E656FA4FE491F2
:20346000F0E0EE0FFF1FEE58FA4F259134913093B0072093AF07FC01E255FA4FE491E0930F
:20348000B7078091AE07882309F439C0CFB7F89480915506811127C0E4EAF5E08491E8EB85
:2034A000F5E09491E82FF0E0EE0FFF1FE859FA4FA591B491EC91E92321F461E08AE00E9420
:2034C0009C0361E08AE00E94E8038CB580618CBD8CB580648CBD61E08DE00E94E80361E0C0
:2034E0008BE00E94E803809155068F5F80935506CFBF8CB58C7F8CBD8DB581608DBD61E03B
:203500008091AC070E94E80361E08091AC070E949C0361E070E080E090E00E94AB0460E022
:203520008091AC070E949C036AE070E080E090E00E94AB0461E08091AC070E949C038EEA0D
:203540000E943E0B85ED0E943E0B80E80E943E0B88EA0E943E0B8FE30E943E0B83ED0E9404
:203560003E0B80E00E943E0B80E40E943E0B8DE80E943E0B84E10E943E0B80E20E943E0B6B
:2035800080E00E943E0B81EA0E943E0B88EC0E943E0B8AED0E943E0B82E10E943E0B81E812
:2035A0000E943E0B8FEC0E943E0B89ED0E943E0B81EF0E943E0B8BED0E943E0B80E40E9495
:2035C0003E0B84EA0E943E0B86EA0E943E0B8FEA0E943E0B0E94A0128EED94E0909301051E
:2035E0008093000580916900836080936900E89A8DEE94E0909303058093020580916900AA
:203600008C6080936900E99A85E10E947104BC01990F880B990B611571058105910511F09D
:203620000E94E7200E9477148AE590E00E940C0360E971E080E090E00E94AB0461E08CE0BC
:203640000E949C0383E290E00197F1F760E08CE00E949C038AE00E942E116B017C018AE544
:2036600090E00E940C03C701B6010E948B2126E933E44BE05DE30E94EF2120E030E040E0E9
:203680005FE30E94EF210E94532170935706609356060E948F1190935B0680935A060E9496
:2036A000541190935906809358062091560630915706293131050CF520915A0630915B06C3
:2036C000AC01281739070CF4A9014A3151050CF405C10E94982022E030E040E050E00E941F
:2036E000F020DC01CB010196A11DB11D8130910509F4F7C0029709F409C18AE590E00E9412
:203700000C0368EE73E080E090E00E94AB04809161068111B6C461E087E00E949C0360E023
:2037200088E00E949C0360E08DE00E949C030E94A0126CED75E08BEB96E00E94CC1164EE33
:2037400075E08BEB96E00E94CC11C8EECC2EC3E0DC2EE12CF12CD2E04D2E512C612C712C4E
:203760000E94A012C1E0D0E0A8E28A2EA3E29A2E22242A94312C8091610681112FC460E077
:203780008DE00E949C030E94A0128BEB96E00E945E05181619060CF04EC08BEB96E00E9451
:2037A0003C0580936006803311F40E94771480916006813369F480910C0590910D050E94EB
:2037C000DF148BEB96E00E945E05181619067CF780916006823369F480910C0590910D0567
:2037E0000E94AB148BEB96E00E945E05181619067CF780916006833369F480910C059091EA
:203800000D050E94C5148BEB96E00E945E05181619067CF780916006843369F480910C05BD
:2038200090910D050E9491148BEB96E00E945E05181619067CF78EE00E94710420915E06C3
:2038400030915F06853591400CF08CC02430310534F08FEF9FEF90935F0680935E0600E2D4
:2038600013E08EE00E947104863591404CF461E070E080E090E00E94AB040150110989F767
:2038800060915E0670915F066F5F7F4F70935F0660935E068BEB96E00E94DB1164EE75E0F1
:2038A0008BEB96E00E94CC110E94A012C4CF1092540610925306109298061092BA060E947B
:2038C00092098DEF94E090935206809351068EEF94E09093500680934F0611CE2A31310536
:2038E0009CF080910C0590910D050E9491146091060570910705072E000C880B990B0E947D
:20390000AB040E947714F9CE4A973CF080910C0590910D050E94AB14EACF0E94982022E02C
:2039200030E040E050E00E94F020DC01CB010196A11DB11D8130910551F0029709F0DDCEE4
:2039400080910C0590910D050E94AB1406C080910C0590910D050E94911460910405709154
:203960000505C9CF8EE00E94710420915E0630915F068338924034F11216130634F085E069
:2039800090E090935F0680935E0600E213E08EE00E947104823892404CF061E070E080E0A5
:2039A00090E00E94AB040150110989F780915E0690915F06019790935F0680935E060E9427
:2039C000A012D0CF2230310509F428C15CF42115310509F450C02130310509F4B2C00E94C7
:2039E000A012C9CE2330310509F483C124303105B1F784E10E947104853591406CF400918A
:203A0000040510910505093243E214070CF4BAC1909205058092040584E10E94710483387E
:203A20009240ECF20091040510910505023011050CF0CDC1D0930505C0930405D0CFF0E285
:203A4000AF2EF3E0BF2E84E10E9471048635914054F461E070E080E090E00E94AB0441E0A6
:203A6000A41AB10881F70F5F1F4F10930B0500930A050E94A01284E10E94710485359140CB
:203A80006CF400910A0510910B0505361105BCF284E690E090930B0580930A0584E10E9440
:203AA0007104833892400CF49ACF00910A0510910B05023011052CF4D0930B05C0930A050D
:203AC0008ECFE0E2AE2EE3E0BE2E84E10E9471048238924054F061E070E080E090E00E94ED
:203AE000AB0481E0A81AB10881F70150110910930B0500930A050E94A012D0CF70E2A72EE9
:203B000073E0B72E84E10E9471048635914054F461E070E080E090E00E94AB0441E0A41A8C
:203B2000B10881F780910A0590910B05080F191F1093090500930805033311057CF40E9405
:203B4000A01284E10E947104853591406CF400910805109109050333110584F282E390E068
:203B6000909309058093080584E10E947104833892400CF434CF0091080510910905023069
:203B800011052CF4D0930905C093080528CF60E2A62E63E0B62E84E10E94710482389240E2
:203BA00054F061E070E080E090E00E94AB0481E0A81AB10881F780910A0590910B05081B47
:203BC000190B109309050093080502301105D4F20E94A012C9CF50E2A52E53E0B52E84E1F6
:203BE0000E9471048635914054F461E070E080E090E00E94AB0481E0A81AB10881F78091C3
:203C00000A0590910B05080F191F10930D0500930C050F3F11057CF40E94A01284E10E948D
:203C20007104853591405CF400910C0510910D050F3F110584F230920D0520920C0584E109
:203C40000E947104833892400CF4C9CE00910C0510910D05023011052CF4D0930D05C093A4
:203C60000C05BDCE40E2A42E43E0B42E84E10E9471048238924054F061E070E080E090E002
:203C80000E94AB0481E0A81AB10881F780910A0590910B05081B190B10930D0500930C058E
:203CA00002301105D4F20E94A012C9CF30E2A32E33E0B32E84E10E9471048635914054F4E3
:203CC00061E070E080E090E00E94AB0441E0A41AB10881F780910A0590910B05080F191F82
:203CE00010930705009306050932134284F40E94A01284E10E9471048535914064F400912B
:203D0000060510910705093243E214077CF2909207058092060584E10E94710483389240AE
:203D20000CF45DCE0091060510910705023011052CF4D0930705C093060551CE20E2A22EE9
:203D400023E0B22E84E10E9471048238924054F061E070E080E090E00E94AB0481E0A81A5F
:203D6000B10881F780910A0590910B05081B190B109307050093060502301105D4F20E947D
:203D8000A012C9CF90E2A92E93E0B92E84E10E9471048635914054F461E070E080E090E085
:203DA0000E94AB0441E0A41AB10881F780910A0590910B05080F191F1093050500930405B9
:203DC000093213420CF024CE0E94A01212CE80E2A82E83E0B82E84E10E94710482389240A8
:203DE00054F061E070E080E090E00E94AB0481E0A81AB10881F780910A0590910B05081B05
:203E0000190B1093050500930405023011050CF411CE0E94A01200CE61E08CE00E949C03FE
:203E200083E290E00197F1F760E08CE00E949C038AE00E942E110E948B2126E933E44BE056
:203E40005DE30E94EF2120E030E040E05FE30E94EF210E945321209108053091090526176C
:203E600037070CF4F8C080910C0590910D050E94C5142FB7F8946091630670916406809134
:203E80006506909166062FBFA70196010E94222180915C0690915D06092E000CAA0BBB0B63
:203EA00082179307A407B50730F468EC70E080E090E00E94AB040E9477140E9477140E9483
:203EC0008F1190935B0680935A060E945411909359068093580620915A0630915B06AC0171
:203EE000281739070CF4A9014A3151053CF18217930794F480910C0590910D050E94911444
:203F00006091060570910705072E000C880B990B0E94AB040E94771420915A0630915B066F
:203F20008091580690915906281739078CF580910C0590910D050E94AB1409C02A31310582
:203F40009CF080910C0590910D050E9491146091060570910705072E000C880B990B0E9416
:203F6000AB040E94771414C04A970CF70E949820A30192010E94F020DC01CB010196A11D6C
:203F8000B11D8130910509F454C0029709F45CC08AE590E00E940C0360915A0670915B0606
:203FA0008BEB96E00E94DB1167EE75E08BEB96E00E94661260915806709159068BEB96E03C
:203FC0000E94DB1164EE75E08BEB96E00E94CC1168EE73E080E090E00E94AB0480916106FF
:203FE000882309F43FC00E94A0120E942A1180910C0590910D050E94DF142FB7F89460919C
:2040000063067091640680916506909166062FBFA70196010E9422212F5F3F4F30935D066F
:2040200020935C06809161068111F6CE0E94A012D5CF80910C0590910D050E949114609118
:2040400004057091050587CF80910C0590910D050E94AB14F4CF65E070E080E090E00E9476
:20406000AB04E0CF0E94771480E090E0892B09F477CB0E946A05882309F472CB0E9400005A
:204080006FCB60E087E00E949C0361E088E00E949C030E942A114BCB8F929F92AF92BF923D
:2040A000CF92DF92EF92FF92CF93DF93EC01688179818A819B81611571058105910521F434
:2040C00064E279ED8BE597E02DE133EF41E050E00E94F02049015A019B01AC01A7EAB1E406
:2040E0000E940F216B017C01ACEEB4EFA50194010E941D21C60ED71EE81EF91EF7FE06C00C
:2041000081E0C81AD108E10880E8F80AC882D982EA82FB82C701B6019F77DF91CF91FF90AE
:20412000EF90DF90CF90BF90AF909F908F9008958F929F92AF92BF92CF92DF92EF92FF92F1
:2041400060911005709111058091120590911305611571058105910521F464E279ED8BE5A8
:2041600097E02DE133EF41E050E00E94F02049015A019B01AC01A7EAB1E40E940F216B0143
:204180007C01ACEEB4EFA50194010E941D21C60ED71EE81EF91EF7FE06C081E0C81AD1088D
:2041A000E10880E8F80AC0921005D0921105E0921205F0921305C701B6019F77FF90EF9007
:2041C000DF90CF90BF90AF909F908F90089560931005709311058093120590931305089575
:2041E000052E97FB1EF400940E94072157FD07D00E94222107FC03D04EF40C9407215095B5
:204200004095309521953F4F4F4F5F4F089590958095709561957F4F8F4F9F4F08950E94C9
:204220004421A59F900DB49F900DA49F800D911D11240895B7FF0C940F210E940F21821B03
:20424000930B0895A1E21A2EAA1BBB1BFD010DC0AA1FBB1FEE1FFF1FA217B307E407F507CA
:2042600020F0A21BB30BE40BF50B661F771F881F991F1A9469F760957095809590959B016C
:20428000AC01BD01CF010895A29FB001B39FC001A39F700D811D1124911DB29F700D811D95
:2042A0001124911D08950E945A216894B1110C94E92108950E94CE2188F09F5798F0B92FED
:2042C0009927B751B0F0E1F0660F771F881F991F1AF0BA95C9F714C0B13091F00E94E82141
:2042E000B1E008950C94E821672F782F8827B85F39F0B93FCCF3869577956795B395D9F7C9
:204300003EF490958095709561957F4F8F4F9F4F0895E89409C097FB3EF4909580957095B7
:2043200061957F4F8F4F9F4F9923A9F0F92F96E9BB279395F695879577956795B795F111EA
:20434000F8CFFAF4BB0F11F460FF1BC06F5F7F4F8F4F9F4F16C0882311F096E911C07723CB
:2043600021F09EE8872F762F05C0662371F096E8862F70E060E02AF09A95660F771F881FDE
:20438000DAF7880F9695879597F9089557FD9058440F551F59F05F3F71F04795880F97FBF1
:2043A000991F61F09F3F79F087950895121613061406551FF2CF4695F1DF08C016161706A8
:2043C0001806991FF1CF86957105610508940895E894BB2766277727CB0197F908950E94F3
:2043E00002220C9473220E94652238F00E946C2220F0952311F00C945C220C9462221124A3
:204400000C94E9210E94C62170F3959FC1F3950F50E0551F629FF001729FBB27F00DB11D26
:20442000639FAA27F00DB11DAA1F649F6627B00DA11D661F829F2227B00DA11D621F739F0D
:20444000B00DA11D621F839FA00D611D221F749F3327A00D611D231F849F600D211D822F79
:20446000762F6A2F11249F5750409AF0F1F088234AF0EE0FFF1FBB1F661F771F881F91505B
:204480005040A9F79E3F510580F00C945C220C94E9215F3FE4F3983ED4F38695779567954C
:2044A000B795F795E7959F5FC1F7FE2B880F911D9695879597F9089597F99F6780E870E0C2
:2044C00060E008959FEF80EC089500240A941616170618060906089500240A941216130690
:2044E000140605060895092E0394000C11F4882352F0BB0F40F4BF2B11F460FF04C06F5F50
:204500007F4F8F4F9F4F0895991B79E004C0991F961708F0961B881F7A95C9F7809508955D
:204520000E944421B7FF0895821B930B0895EE0FFF1F0590F491E02D099481E090E0F8940D
:204540000C94A222F894FFCF0000000000000000000000000000000000000000000000009D
:2045600000000000000000000000000000000000000000000000000000000000000000003B
:20458000000000000000008080800000000000000000000000000000008080C0C00000001B
:2045A0000000000000000000000000000000000000000000000000000000000000000000FB
:2045C0000000000000000000000000000000000000000000000000000000000080C0E0F0CB
:2045E000F8FCF8E0000000000000000000000000000000000080808080800080800000006F
:2046000000808080808000FFFFFF000000008080808000008080000080FFFF80800080809F
:2046200000808080800080800000000000808000008C8E84000080F8F8F8800000000000F4
:204640000000000000000000F0F0F0F0F0F0F0F0F0F0F0F0E0E0C08000E0FCFEFFFFFF7FC4
:20466000FFFFFFFFFF0000000000000000000000000000FEFFC70101010183FFFF00007C7A
:20468000FEC70101010183FFFFFF0038FEC78301010183C7FFFF000001FFFF010100FFFF07
:2046A0000701010100007FFF80000000FFFF7F0000FFFFFF000001FFFFFF01000000000079
:2046C0000000000000000000030F3F7F7FFFFFFFFFFFFFFFE7C7C78F8F9FBFFFFFC3C0F030
:2046E000FFFFFFFFFFFCFCFCFCFCFCFCFCF8F8F0F0E0C00001030303030301030300000058
:20470000000103030303010103010000000103030303010103030000000303000000030365
:2047200000000000000000010303030303010000000103010000000303010000000000005C
:20474000000000000000000000000080C0E0F0F9FFFFFFFFFF3F1F0F87C7F7FFFF1F1F3D2A
:20476000FCF8F8F8F87C7DFFFFFFFFFFFFFFFF7F3F0F070030300000000000000000000038
:20478000000000000000000000000000FEFEFC000000000000000000000000000000000021
:2047A0000000000000E0C000000000000000000000003030000000000000000000000000F9
:2047C000000000000000000000C0FEFFFFFFFFFFFFFFFFFF7F7F3F1F0F071F7FFFFFF8F826
:2047E000FFFFFFFFFFFEF8E0000000010000000000000000FEFE000000FCFEFC0C06060ECF
:20480000FCF80000F0F81C0E0606060CFFFFFF0000FEFE00000000FCFEFC00183C7E66E667
:20482000CE84000006FFFF0606FCFEFC0C0606060000FEFE0000C0F8FC4E4646464E7C78F0
:2048400040183C76E6CECC80000000000000000000000000000000000000000001070F1F18
:204860001F3F3F3F3F1F0F030000000000000000000000000F0F0000000F0F0F00000000A1
:204880000F0F000003070E0C18180C060F0F0F0000010F0E0C180C0F070100040E0C180CC0
:2048A0000F070000000F0F00000F0F0F0000000000000F0F00000007070C0C181C0C060607
:2048C00000040E0C180C0F0700000000000000000000000000000000000000000000000080
:2048E0000000000000000000000000000000000000000000000000000000000000000000B8
:20490000000000000000000000000000000000000000000000000000000000000000000097
:20492000000000000000000000000000000000000000000000000000000000000000000077
:204940000000000000000000FF04FF0458022C010F000500C8000400010000000A001400CB
:204960001E0028003200000103070F1F3F7F0080C0E0F0F8FCFE00000000A00500052D05EA
:20498000ED055E053C055005000000000F0BE20A2711B80ADB0AC80AB90A00000000CD0DD8
:2049A000000527112611C708B80A72104A1066105A107910B80A930B920B0D066A07930F8A
:2049C000760FFE0E9F0E4F4646004F4E003E0053544F5000464F525741524400524947485E
:2049E00054004241434B57415244004C454654002B0053544F503A2020004D4F544F52205D
:204A000053504545443A20004445475245452039303A202020004445475245452031383097
:204A20003A202000696E206C6F6F70000D0A002C0000FFFFFFFFFFFFFFFFFFFFFFFFFFFF16
:204A4000FFFFFFFFFFFFFFFFFFFFFFFFFFFFFFFFFFFFFFFFFFFFFFFFFFFFFFFFFFFFFFFF76
:204A6000FFFFFFFFFFFFFFFFFFFFFFFFFFFFFFFFFFFFFFFFFFFFFFFFFFFFFFFFFFFFFFFF56
:204A80005F4F089590958095709561957F4F8F4F9F4F08950E947F25A59F900DB49F900D48
:204AA000A49F800D911D11240895B7FF0C944A250E944A25821B930B0895A1E21A2EAA1B68
:204AC000BB1BFD010DC0AA1FBB1FEE1FFF1FA217B307E407F50720F0A21BB30BE40BF50B93
:204AE000661F771F881F991F1A9469F760957095809590959B01AC01BD01CF010895A29F45
:204B0000B001B39FC001A39F700D811D1124911DB29F700D811D1124911D08955058BB271B
:204B2000AA270E94A6250C9420270E94122738F00E94192720F039F49F3F19F426F40C9489
:204B40000F270EF4E095E7FB0C940927E92F0E94312758F3BA17620773078407950720F0AE
:204B600079F4A6F50C9453270EF4E0950B2EBA2FA02D0B01B90190010C01CA01A0011124A8
:204B8000FF27591B99F0593F50F4503E68F11A16F040A22F232F342F4427585FF3CF46958A
:204BA00037952795A795F0405395C9F77EF41F16BA0B620B730B840BBAF09150A1F0FF0F49
:204BC000BB1F661F771F881FC2F70EC0BA0F621F731F841F48F4879577956795B795F795FB
:204BE0009E3F08F0B0CF9395880F08F09927EE0F9795879508950E94E52608F481E0089561
:204C00000E9414260C9420270E94192758F00E94122740F029F45F3F29F00C940927511196
:204C20000C9454270C940F270E94312768F39923B1F3552391F3951B550BBB27AA27621796
:204C40007307840738F09F5F5F4F220F331F441FAA1FA9F335D00E2E3AF0E0E832D091501A
:204C60005040E695001CCAF72BD0FE2F29D0660F771F881FBB1F261737074807AB07B0E88B
:204C800009F0BB0B802DBF01FF2793585F4F3AF09E3F510578F00C9409270C9454275F3FDB
:204CA000E4F3983ED4F3869577956795B795F7959F5FC9F7880F911D9695879597F908950E
:204CC000E1E0660F771F881FBB1F621773078407BA0720F0621B730B840BBA0BEE1F88F75D
:204CE000E09508950E9479266894B1110C94542708950E94392788F09F5798F0B92F99274B
:204D0000B751B0F0E1F0660F771F881F991F1AF0BA95C9F714C0B13091F00E945327B1E0B4
:204D200008950C945327672F782F8827B85F39F0B93FCCF3869577956795B395D9F73EF46C
:204D400090958095709561957F4F8F4F9F4F0895E89409C097FB3EF49095809570956195A9
:204D60007F4F8F4F9F4F9923A9F0F92F96E9BB279395F695879577956795B795F111F8CFCF
:204D8000FAF4BB0F11F460FF1BC06F5F7F4F8F4F9F4F16C0882311F096E911C0772321F037
:204DA0009EE8872F762F05C0662371F096E8862F70E060E02AF09A95660F771F881FDAF7D4
:204DC000880F9695879597F90895990F0008550FAA0BE0E8FEEF16161706E807F907C0F062
:204DE00012161306E407F50798F0621B730B840B950B39F40A2661F0232B242B252B21F429
:204E000008950A2609F4A140A6958FEF811D811D089597F99F6780E870E060E008959FEF9C
:204E200080EC089500240A941616170618060906089500240A9412161306140605060895CF
:204E4000092E0394000C11F4882352F0BB0F40F4BF2B11F460FF04C06F5F7F4F8F4F9F4F0E
:204E6000089557FD9058440F551F59F05F3F71F04795880F97FB991F61F09F3F79F08795D9
:204E80000895121613061406551FF2CF4695F1DF08C0161617061806991FF1CF8695710502
:204EA000610508940895E894BB2766277727CB0197F908950E946D270C9420270E941227D9
:204EC00038F00E94192720F0952311F00C9409270C940F2711240C9454270E94312770F3AC
:204EE000959FC1F3950F50E0551F629FF001729FBB27F00DB11D639FAA27F00DB11DAA1F6B
:204F0000649F6627B00DA11D661F829F2227B00DA11D621F739FB00DA11D621F839FA00DBE
:204F2000611D221F749F3327A00D611D231F849F600D211D822F762F6A2F11249F57504060
:204F40009AF0F1F088234AF0EE0FFF1FBB1F661F771F881F91505040A9F79E3F510580F096
:204F60000C9409270C9454275F3FE4F3983ED4F3869577956795B795F795E7959F5FC1F707
:204F8000FE2B880F911D9695879597F90895DB018F939F930E944A25BF91AF91A29F800D90
:204FA000911DA39F900DB29F900D11240895991B79E004C0991F961708F0961B881F7A950F
:204FC000C9F780950895002E083090F0982F872F762F652F542F432F322F22270850F4CF09
:204FE000220F331F441F551F661F771F881F991F0A95B2F7002D089597FD1094002E08302D
:2050000098F00850232F342F452F562F672F782F892F912DF4CF1594979587957795679593
:2050200057954795379527950A95AAF71124002D0895EE0FFF1F0590F491E02D099481E0A1
:2050400090E0F8940C942428F894FFCF00000000000000000000000000000000000000000E
:20506000000000000000000000000000000000000000000000000000000000000000000030
:2050800000000000000000000000008080800000000000000000000000000000008080C0D0
:2050A000C00000000000000000000000000000000000000000000000000000000000000030
:2050C0000000000000000000000000000000000000000000000000000000000000000000D0
:2050E00080C0E0F0F8FCF8E0000000000000000000000000000000000080808080800080D4
:205100008000000000808080808000FFFFFF000000008080808000008080000080FFFF8094
:205120008000808000808080800080800000000000808000008C8E84000080F8F8F8800069
:20514000000000000000000000000000F0F0F0F0F0F0F0F0F0F0F0F0E0E0C08000E0FCFE35
:20516000FFFFFF7FFFFFFFFFFF0000000000000000000000000000FEFFC70101010183FF6E
:20518000FF00007CFEC70101010183FFFFFF0038FEC78301010183C7FFFF000001FFFF0180
:2051A0000100FFFF0701010100007FFF80000000FFFF7F0000FFFFFF000001FFFFFF01006F
:2051C000000000000000000000000000030F3F7F7FFFFFFFFFFFFFFFE7C7C78F8F9FBFFF97
:2051E000FFC3C0F0FFFFFFFFFFFCFCFCFCFCFCFCFCF8F8F0F0E0C0000103030303030103DE
:2052000003000000000103030303010103010000000103030303010103030000000303005D
:2052200000000303000000000000000103030303030100000001030100000003030100004B
:2052400000000000000000000000000000000080C0E0F0F9FFFFFFFFFF3F1F0F87C7F7FF99
:20526000FF1F1F3DFCF8F8F8F87C7DFFFFFFFFFFFFFFFF7F3F0F07003030000000000000B3
:2052800000000000000000000000000000000000FEFEFC0000000000000000000000000016
:2052A000000000000000000000E0C0000000000000000000000030300000000000000000EE
:2052C00000000000000000000000000000C0FEFFFFFFFFFFFFFFFFFF7F7F3F1F0F071F7F09
:2052E000FFFFF8F8FFFFFFFFFFFEF8E0000000010000000000000000FEFE000000FCFEFCFC
:205300000C06060EFCF80000F0F81C0E0606060CFFFFFF0000FEFE00000000FCFEFC00183C
:205320003C7E66E6CE84000006FFFF0606FCFEFC0C0606060000FEFE0000C0F8FC4E464667
:20534000464E7C7840183C76E6CECC800000000000000000000000000000000000000000BB
:2053600001070F1F1F3F3F3F3F1F0F030000000000000000000000000F0F0000000F0F0F60
:20538000000000000F0F000003070E0C18180C060F0F0F0000010F0E0C180C0F07010004F3
:2053A0000E0C180C0F070000000F0F00000F0F0F0000000000000F0F00000007070C0C18F2
:2053C0001C0C060600040E0C180C0F07000000000000000000000000000000000000000041
:2053E0000000000000000000000000000000000000000000000000000000000000000000AD
:2054000000000000000000000000000000000000000000000000000000000000000000008C
:2054200000000000000000000000000000000000000000000000000000000000000000006C
:205440000000000000000000000000000E050E0501000000000103070F1F3F7F0080C0E00E
:20546000F0F8FCFE00000000AF050F053C05FC056D054B055F0500000000D50BA80BED1189
:205480007E0BA10B8E0B7F0B00000000930E0F05ED11EC118D097E0B381110112C1120110D
:2054A0003F117E0B590C580CD306300859103C10C40F650F4D4F44453A004D4F544F52202D
:2054C00053504545443A0039302052554E2054494D453A003138302052554E2054494D451D
:2054E0003A00696E206C6F6F70000D0A0068696265726E61696E7467002C0000FFFFFFFFF7
:205500000000000F0F0F000000000F0F000003070E0C18180C060F0F0F0000010F0E0C186B
:205520000C0F070100040E0C180C0F070000000F0F00000F0F0F0000000000000F0F000087
:205540000007070C0C181C0C060600040E0C180C0F07000000000000000000000000000081
:2055600000000000000000000000000000000000000000000000000000000000000000002B
:2055800000000000000000000000000000000000000000000000000000000000000000000B
:2055A0000000000000000000000000000000000000000000000000000000000000000000EB
:2055C0000000000000000000000000000000000000000E050E0558022C01C8000100000055
:2055E000000103070F1F3F7F0080C0E0F0F8FCFE00000000AF050F053C05FC056D054B05E6
:205600005F0500000000D50BA80BED117E0BA10B8E0B7F0B00000000930E0F05ED11EC118D
:205620008D097E0B381110112C1120113F117E0B590C580CD306300859103C10C40F650FC4
:205640004D4F44453A004D4F544F522053504545443A0039302052554E2054494D453A0088
:205660003138302052554E2054494D453A00696E206C6F6F70000D0A00454E544552494E16
:20568000472053544154453D3D31002C0000FFFFFFFFFFFFFFFFFFFFFFFFFFFFFFFFFFFF5D
:2056A000FFFFFFFFFFFFFFFFFFFFFFFFFFFFFFFFFFFFFFFFFFFFFFFFFFFFFFFFFFFFFFFF0A
:2056C000FFFFFFFFFFFFFFFFFFFFFFFFFFFFFFFFFFFFFFFFFFFFFFFFFFFFFFFFFFFFFFFFEA
:2056E000FFFFFFFFFFFFFFFFFFFFFFFFFFFFFFFFFFFFFFFFFFFFFFFFFFFFFFFFFFFFFFFFCA
:20570000FFFFFFFFFFFFFFFFFFFFFFFFFFFFFFFFFFFFFFFFFFFFFFFFFFFFFFFFFFFFFFFFA9
:207E0000112484B714BE81FFF0D085E08093810082E08093C00088E18093C10086E08093FC
:207E2000C20080E18093C4008EE0C9D0259A86E020E33CEF91E0309385002093840096BBAD
:207E4000B09BFECF1D9AA8958150A9F7CC24DD2488248394B5E0AB2EA1E19A2EF3E0BF2E79
:207E6000A2D0813461F49FD0082FAFD0023811F0013811F484E001C083E08DD089C0823404
:207E800011F484E103C0853419F485E0A6D080C0853579F488D0E82EFF2485D0082F10E0A0
:207EA000102F00270E291F29000F111F8ED068016FC0863521F484E090D080E0DECF84364D
:207EC00009F040C070D06FD0082F6DD080E0C81680E7D80618F4F601B7BEE895C0E0D1E0ED
:207EE00062D089930C17E1F7F0E0CF16F0E7DF0618F0F601B7BEE89568D007B600FCFDCF1A
:207F0000A601A0E0B1E02C9130E011968C91119790E0982F8827822B932B1296FA010C016F
:207F200087BEE89511244E5F5F4FF1E0A038BF0751F7F601A7BEE89507B600FCFDCF97BE85
:207F4000E89526C08437B1F42ED02DD0F82E2BD03CD0F601EF2C8F010F5F1F4F84911BD0B8
:207F6000EA94F801C1F70894C11CD11CFA94CF0CD11C0EC0853739F428D08EE10CD085E9AE
:207F80000AD08FE07ACF813511F488E018D01DD080E101D065CF982F8091C00085FFFCCF0A
:207FA0009093C60008958091C00087FFFCCF8091C00084FD01C0A8958091C6000895E0E68F
:207FC000F0E098E1908380830895EDDF803219F088E0F5DFFFCF84E1DECF1F93182FE3DF47
:207FE0001150E9F7F2DF1F91089580E0E8DFEE27FF270994FFFFFFFFFFFFFFFFFFFF040425
:00000001FF
