:100000000C9434000C9451000C9451000C94510049
:100010000C9451000C9451000C9451000C9451001C
:100020000C9451000C9451000C9451000C9451000C
:100030000C9451000C9451000C9451000C945100FC
:100040000C9451000C9451000C9451000C945100EC
:100050000C9451000C9451000C9451000C945100DC
:100060000C9451000C94510011241FBECFEFD8E026
:10007000DEBFCDBF11E0A0E0B1E0E0EDF5E002C0F1
:1000800005900D92A830B107D9F721E0A8E0B1E0C2
:1000900001C01D92AC30B207E1F70E9419010C9427
:1000A000E6020C9400000F931F93CF93DF9300D0D0
:1000B00000D0CDB7DEB789839A838B019B01220FD5
:1000C000331F260F371F2B833C83C9010E94CE01AB
:1000D000012BA9F0E981FA81DC012B813C812E0FF3
:1000E0003F1F2B833C833081218142814D933D937F
:1000F0002D9333962B813C81E217F307A1F70F90E4
:100100000F900F900F90DF91CF911F910F91089555
:10011000161617060CF08CC0FC01680F791F819130
:100120005E9A9BB1282F269526FB96F99BB9000075
:10013000000000005E9800000000000000000000C9
:1001400000005E9A2BB12F7B982F9074922B9BB955
:100150000000000000005E980000000000000000A9
:10016000000000005E9A9BB1282F220F26FB96F913
:100170009BB90000000000005E9800000000000035
:100180000000000000005E9A9BB1282F220F220F72
:1001900026FB96F99BB90000000000005E98000065
:1001A000000000000000000000005E9A2BB183FBFD
:1001B000992796F92F7B922B9BB900000000000035
:1001C0005E980000000000000000000000005E9A41
:1001D0002BB182FB992796F92F7B922B9BB90000BC
:1001E000000000005E980000000000000000000019
:1001F00000005E9A2BB181FB992796F92F7B922BF9
:100200009BB90000000000005E98000000000000A4
:100210000000000000005E9A80FD5E9A80FF5E98FC
:100220000000000000005E986E177F0709F077CF8E
:100230000895CDB7DEB7C458D3400FB6F894DEBFEB
:100240000FBECDBF569AFE0131969E012B573C4FF3
:100250008FE010828283818333962E173F07C9F780
:100260006CE271E0CE0101960E945300BC01AC012A
:100270004C575C4FFB0191915E9A8BB1292F2695CB
:1002800026FB86F98BB90000000000005E98000094
:10029000000000000000000000005E9A2BB12F7BE0
:1002A000892F8074822B8BB90000000000005E98BB
:1002B0000000000000000000000000005E9A8BB10A
:1002C000292F220F26FB86F98BB9000000000000C1
:1002D0005E980000000000000000000000005E9A30
:1002E0008BB1292F220F220F26FB86F98BB9000034
:1002F000000000005E980000000000000000000008
:1003000000005E9A8BB193FB222726F98F7B282B66
:100310002BB90000000000005E9800000000000003
:100320000000000000005E9A3BB192FB222726F9F4
:100330003F7B232B2BB90000000000005E980000DB
:10034000000000000000000000005E9A3BB191FB3D
:10035000222726F93F7B232B2BB900000000000049
:100360005E980000000000000000000000005E9A9F
:1003700090FD5E9A90FF5E980000000000005E987D
:100380004E175F0709F077CF2FEF89E698E12150EC
:1003900080409040E1F700C000006CCF0F931F93A6
:1003A000CF93DF939C01029710F422E030E0E091BC
:1003B0000801F091090180E090E0DC01309791F4B0
:1003C000009709F445C0821B930B84309105B0F56A
:1003D000DB0112968D919D91209759F18A839B8321
:1003E000FB010DC0408151810281138142175307E7
:1003F000B8F089F4109751F012960D931C93329631
:10040000CF01DF91CF911F910F91089500930801C3
:1004100010930901F4CF009751F04817590738F0AD
:10042000AC01DE01CA01ED01DF01F801C7CFBF0158
:10043000F9CF8093080190930901D2CFFB01E80F17
:10044000F91F219331930297DB018D939D93D8CFB0
:1004500040910A0150910B014115510541F4409121
:1004600002015091030140930A0150930B018091C6
:10047000000190910101009741F48DB79EB7609102
:10048000040170910501861B970B4817590708F066
:10049000B7CF841B950B8217930708F4B1CFB9012E
:1004A0006E5F7F4F8617970708F4AACF640F751FFA
:1004B00060930A0170930B01FA0121933193A0CF4D
:1004C000CF93DF930097E1F0DC011D921D9214970A
:1004D0004D915D911297E0910801F0910901840F0F
:1004E000951F20910A0130910B012817390751F50A
:1004F000A0930A01B0930B0180E090E0309729F4BB
:10050000DF91CF910895CF01F90122813381211527
:100510003105C9F7EF01299139912C0F3D1FA21721
:10052000B30771F7009749F410920801109209017E
:10053000E0930A01F0930B01E3CFDC0112961D92C8
:100540001D92F6CF20E030E0309731F4A0930801FF
:10055000B0930901D5CFFB01EA17FB07F8F46281DC
:1005600073819F0161157105B1F7E901AA83BB830E
:10057000F90141915191CF01840F951FA817B90737
:1005800009F0BECF8D919D910296840F951F8883AF
:1005900099838D919D918A839B83B2CF1296ED931F
:1005A000FD931497E817F90769F44E5F5F4F808158
:1005B0009181840F951F8D939D93828193818D935B
:1005C0009D9314972115310581F6C0CFF894FFCF84
:0805D00000000C0120004000B6
:00000001FF
