:100000000C9434000C9449000C9449000C94490061
:100010000C9449000C9449000C9449000C9449003C
:100020000C9449000C9449000C9449000C9449002C
:100030000C9449000C9449000C9449000C9449001C
:100040000C9449000C9449000C9449000C9449000C
:100050000C9449000C9449000C9449000C944900FC
:100060000C9449000C94490011241FBECFEFD8E036
:10007000DEBFCDBF11E0A0E0B1E0EAE2F1E002C0F6
:1000800005900D92A230B107D9F70E944B000C9455
:1000900093000C94000000D000D00F92CDB7DEB7D3
:1000A000569A8AEA89838A838B838C838D83AE01F7
:1000B0004A5F5F4FFE01319681919BB1282F2695B3
:1000C00026FB96F99BB92BB12F7B982F9074922B1E
:1000D0009BB99BB1282F220F26FB96F99BB99BB1A8
:1000E000282F220F220F26FB96F99BB92BB183FBF9
:1000F000992796F92F7B922B9BB92BB182FB9927DD
:1001000096F92F7B922B9BB92BB181FB992796F9FE
:100110002F7B922B9BB980FD5E9A80FF5E984E17D5
:0A0120005F0751F6C7CFF894FFCF38
:02012A00400093
:00000001FF
